:0C0000000C9488000C9400000C9400008C
:10000C000C9400000C9400000C9400000C94000064
:10001C000C9400000C9406020C9400000C9400004C
:10002C000C9400000C9400000C9400000C94000044
:10003C000C9400000C9400000C9400000C94000034
:10004C000C9400000C9400000100000000FF0A005A
:10005C000B0C0102030D0405060E0708090F2020E6
:10006C002020202020202020202020202020004183
:10007C007279616E205361792048656C6C6F210038
:10008C005072657373205B4F4E5D00253032643ABD
:10009C00253032643A253032642020202020202064
:1000AC002000323000253032642F253032642F2569
:1000BC00303264202020200080C02D4E414E0000A4
:1000CC0001002D4E414E00494E4600000100020039
:1000DC005400040004005600110060016A00110075
:1000EC0071017B000B0082018C0003008D01AE00BE
:1000FC0003009001AE000200AB01C4000100AF018F
:10010C00CC000000F894EE27ECBBF1E0FBBFEBBF9A
:10011C00E5BF8DE0A2E0BB27ED938A95E9F780E07F
:10012C0094E0A0E6ED930197E9F7E8EDF0E0859116
:10013C009591009761F0A591B59105901590BF012F
:10014C00F00105900D920197E1F7FB01F0CFEFE57F
:10015C00EDBFE4E0EEBFC0E6D1E00C942502AA931B
:10016C00E981F0E0309731F4E881AA81BB811296E5
:10017C00EC9330C0E130A0E0FA0731F4E881AA81B9
:10018C00BB811196EC9326C0E230A0E0FA0729F46B
:10019C00E881AA81BB81EC931DC0E330A0E0FA0793
:1001AC0031F4E881AA81BB811696EC9313C0E4303C
:1001BC00A0E0FA0731F4E881AA81BB811596EC9393
:1001CC0009C0E530A0E0FA0729F4E881AA81BB81D7
:1001DC001496EC9324960895AA93E881F0E0309756
:1001EC0029F4E981FA81E2810C94B603E130A0E0B4
:1001FC00FA0729F4E981FA81E1810C94B603E23023
:10020C00A0E0FA0729F4A981BA81EC910C94B60309
:10021C00E330A0E0FA0729F4E981FA81E6810C9435
:10022C00B603E430A0E0FA0729F4E981FA81E5810C
:10023C000C94B603E530A0E0FA0729F4E981FA81C1
:10024C00E4810C94B6030C94B603AA93E881E2956E
:10025C00EF70AAE0EA02F001AE2FE881EF70EA0F2E
:10026C000C94E403AA93A881B0E0EAE0F0E00E94C9
:10027C004F0CA0E1EA02602DA881BB27EAE0F0E078
:10028C000E94850CE60F0C94E4030E945508A7E02D
:10029C000E94290AA0E00E945A0808952E970E94F5
:1002AC005508A0E00E945A080E94F509A1ED0E9491
:1002BC00290A0E945E08E8830E945E08E9830E9476
:1002CC005E08EA830E945E08EB830E945E08EC8362
:1002DC000E945E08ED83A0E00E940E0AAE2FB5DFEF
:1002EC00EE830E94040AFE01DE01179687E00E944D
:1002FC00EB0CFE01379687E02E960895BA93AA93DD
:10030C000E945508A0E00E94290AA881B981AC91ED
:10031C000E946408A1810E946408A2810E94640862
:10032C00A3810E946408A4810E946408A5810E9494
:10033C006408A68197DFAE2F0E945A080C948403A0
:10034C00609780E1A0E0B0E0EAE5F0E00E94070DE4
:10035C001A930A93E2B3EF60E2BB00E0043028F595
:10036C00E0E0E1BB11B2E02FA0E80E94090CE1290A
:10037C00E1BB10E01430B8F410B2E12FA8E00E94F9
:10038C00090CE12171F4E4E0E19FF001DF01E02FC1
:10039C00F0E0EA0FFB1FDE011296AE0FBF1FEC91CF
:1003AC0005C01F5FE7CF0F5FD9CFEFEF1981088131
:1003BC0062960895BA93AA93E0E0EA93AB810E9407
:1003CC007903A0E6B1E00E946C08AB810E9479032E
:1003DC00A881B9810E94A7030C94B603E0E0EFBD9D
:1003EC00E1E0EEBDE0EEEDBDE0ECECBDE0E0E7BD44
:1003FC00E6BDEBBDEABDE9BDE8BDE4E0E9BF0895AB
:10040C006A937A93AA93BA93EA93FA93EFB7EA931F
:10041C00E0EEEDBDE0ECECBDA3EAB1E00E94BB0C5C
:10042C00EF5FFF4F6F4F7F4F0E94C00CE991EFBF02
:10043C00F991E991B991A9917991699118952797B9
:10044C000E947108E0E0EA83EB83EC83ED83EE839A
:10045C00FF2410E0A0E10E94B8030E94F00915DF10
:10046C00BDDF7894552011F420FC01C00CC0E0E0F5
:10047C00EA93A1E7B1E09EDFE1E0EA93A2E8B1E004
:10048C0099DFE89420F8E1E0E51511F420FC01C0B7
:10049C000EC00E947508A3E9B1E00E946C08A1E0AF
:1004AC0022D1ADE8B1E00E9499080E94BA08E2E0BE
:1004BC00E51511F420FC01C035C00E947508103000
:1004CC0020F0133010F4F0FC01C00DC0E3E0E19F0C
:1004DC00F001ED56FE4FA0E2A083E3E0E19FF001B6
:1004EC00EC56FE4FA083A3E9B1E00E946C08A1E09A
:1004FC00FAD0A0E9B1E00E949908133020F0163030
:10050C0010F4F0FC01C00CC00E94C108ED56FE4F67
:10051C00A0E2A0830E94C108EC56FE4FA0E2A0838B
:10052C000E94BA08E52DF0E0309799F40E94C908B2
:10053C0011F0741409F408C0EAE0E41521F4E1E0C8
:10054C005E2E689420F8742CEFEFE41509F47E2EDF
:10055C00A8C0E130A0E0FA0719F50E94CF08E93EE7
:10056C00A3E0FA07A0E06A07A0E07A0730F096DE75
:10057C00DE010E94EB0C0E94E2080E94C90811F0F7
:10058C00741409F408C0EBE0E41521F4E2E05E2EEB
:10059C00689420F8742CEFEFE41509F47E2E81C0DA
:1005AC00E230A0E0FA0709F07CC00E94CF08E531E8
:1005BC00A0E0FA07A0E06A07A0E07A0720F0E1E0EB
:1005CC00FE260E94E2080E94C90811F0741409F476
:1005DC0064C0EDE0E41511F4113008F404C01150BE
:1005EC00689420F859C0ECE0E41511F4153008F0CB
:1005FC0004C01F5F689420F84FC0EBE0E41539F499
:10060C00DE017CDEE1E05E2E689420F845C0E0E07F
:10061C004E1618F0E9E0E41508F43EC02297E0E02D
:10062C00E883FE013296FA93EA93A12FD5DDE98394
:10063C00A981AA3010F0E0E0E983E981AAE0EA029E
:10064C00F001E40DE883103019F4A881A931D0F43D
:10065C00113019F4A881AD33A8F4123019F4A88123
:10066C00AD3380F4133019F4A881A43658F4143047
:10067C0019F4A881AD3030F4153019F4A881A032EA
:10068C0008F402C0E0E0E883FE013296FA93EA93A4
:10069C001A93AB8164DD2296742CEFEFE41509F408
:1006AC007E2EE0CEFFCFAA93E5B3EF70AE2FE8819C
:1006BC00E07FEA2BE5BB8DE08A95F1F7AA9A8DE0F5
:1006CC008A95F1F7AA988DE08A95F1F777C0AA93ED
:1006DC00A881E9DFE881E295E883A881E4DF85E879
:1006EC008A95F1F76BC0AA93E881F0E0E555FE4FCF
:1006FC00E081A981AE0FEBDF698098802296089586
:10070C00A2E00E94F508ACE0E2DFA1E00E94F5084F
:10071C00E0E09E2E6E2E0895AA93A881AA3011F0C7
:10072C00681448F0E0E0EA939394A92DDCDFA881EB
:10073C00AA3009F443C06394A89AA881C8DFA8988A
:10074C003DC0BA93AA931A93A981BA81ED91A9835A
:10075C00BA831E2FE03019F0A12FDEDFF5CF188100
:10076C0023960895AA93E4B3E06FE4BBA29AA09AEF
:10077C00A19AAA98A898A9988880E881E058E09353
:10078C00AD01E881E054E093AE01A4E1B0E00E9439
:10079C00410A0E94FB080E94FB080E94FB08A0E291
:1007AC0082DF88EC90E00197F1F7A8E290DFA4E0FB
:1007BC008EDFA5E88CDFA6E08ADFA2DF2196089504
:1007CC00BA93AA931A930A93AA81BB8112960E9498
:1007DC00B10C309729F1AA81BB8114960E94B10CFF
:1007EC008F01309761F00230E0E01E0780F0F801D5
:1007FC0031978F01AA81BB811496ED93FC93AA814A
:10080C00BB8112960E9403093197AC81A083AA8107
:10081C00BB810E94B10CFF2312F00E94030906C099
:10082C00AA81BB81EFEFFFEFED93FC931981088157
:10083C0025960895BA93AA9324970E947108E0E82C
:10084C00EA83EFE3EB830E94FB0CEE85FF85EF3F21
:10085C00AFEFFA0749F4E885F985FA93EA93A6EC29
:10086C00B0E00E944307B7C0EF3FAFE7FA0749F487
:10087C00E885F985FA93EA93A7ECB0E00E94430768
:10088C00AAC0AB85A73010F0E6E0EB871B85E12F03
:10089C001150E03019F00E940909F9CFEC85FD8563
:1008AC006E857F850E94F50C21F430E00E940909C9
:1008BC002DC03B850E94180909F008F40BC00E945A
:1008CC0009090E94180928F00E9423090E9428098E
:1008DC00F8CF0DC00E94180940F40E9423090E9411
:1008EC0034090E943B093150F5CF0E940909EC856F
:1008FC00FD856E857F850E9440090E943B090E9400
:10090C00180920F00E9423090E94280910E0EB85A9
:10091C00E117A8F1AC81BD818E819F810E944709AE
:10092C000E944009DF01CB010E949A07EC83FD83F2
:10093C006E837F830E9423090E948F0B0E947E0A84
:10094C000E2F0E944E090E945509FF276627772714
:10095C000E94B70AAC81BD818E819F810E94410BA0
:10096C000E9423090E945A090E943B09E12F1F5F34
:10097C00E03069F60E944E09EEE2EC93C8CF0E947B
:10098C005F093197AA85A08330302CF43195A88566
:10099C00B985EDE203C0A885B985EBE2EC930E9422
:1009AC005F090E945F093197BF01A32FEAE00E9403
:1009BC00370CE05DDB01EC930E945F093197BF01BE
:1009CC00A32FEAE00E94790CE05DDB01EC93A88593
:1009DC00B985E0E0EC930E94020D60960895BA93FD
:1009EC00AA93EF9761970E94F90C10E0FE01E85A68
:1009FC00FF4F0190F081E02DE887F987FE01EA5A5C
:100A0C00FF4F0190F081E02DEE83FF83AE81BF811B
:100A1C00E0E0F0E0ED93FC93DE01A45ABF4F0E949E
:100A2C0003093197E4912E2FE03009F4E9C1E12F4D
:100A3C00E03039F4253211F411E002C00E9465094E
:100A4C00DEC1E130C1F4253219F40E946509D6C12A
:100A5C0012E0E0E0ED8B00E02D3211F401E0CFC1AB
:100A6C002B3219F4EBE2ED8BCAC1203219F4E0E21F
:100A7C00ED8BC5C102C0E23039F450E013E02033F5
:100A8C0011F40068BCC102C0E33091F4203310F0C3
:100A9C002A3308F007C0AAE05A9F502DE22FE053EA
:100AAC005E0FADC140E02E3211F414E0A8C10FC0AE
:100ABC00E43099F4203310F02A3308F008C00062B7
:100ACC00AAE04A9F402DE22FE0534E0F98C12C36DE
:100ADC0019F4026015E093C103C0E53009F08FC131
:100AEC00E22FE33659F40E946C090E9473090E94AC
:100AFC006C09A481AA930E947A0980C1E53411F093
:100B0C00E53609F403C0E63609F048C0FE017696D6
:100B1C00EE87FF870E9480090E94B50C0E9487090E
:100B2C000E948C09AD85AA2332F0AD89AB3259F005
:100B3C00A03281F017C00E948E090E944B0A0E94BD
:100B4C008709EDE2ED8B07FF05C0ED89EA930E9462
:100B5C007A0908C0EE85FF853196EE87FF873197BD
:100B6C00AD89A08305FF46E0263651F40E948E091C
:100B7C000E94D40C4A93AB89BC890E94B10709C06E
:100B8C000E948E090E94D40C4A932A93AC89BD8989
:100B9C0051DEFE0176960E9493091EC0E33739F4AC
:100BAC000E948C090E949B090E9493090EC0E03799
:100BBC00C1F40E948C090E949B09EE87FF87AE85C9
:100BCC00BF850E945C071E2F08600F77403011F024
:100BDC00411708F001C0142F40E0E0E0EC8B30E04E
:100BEC006DC0E43611F0E93611F4046002C0E5374B
:100BFC00A1F4EAE0EC8B01FF08C0E0E0FAEC6AE952
:100C0C007BE30E94A0091AE022C0E0E1F7E260E079
:100C1C0070E00E94A00915E01AC0E83511F40860D4
:100C2C0003C0E83709F0EAC0E0E1EC8B01FF08C033
:100C3C00E0E0F0E060E070E10E94A00918E007C07D
:100C4C00E0E0F0E160E070E00E94A00914E04030C8
:100C5C0011F00F7701C041E001FF08C00E948C0920
:100C6C000E94800914960E94B50C0FC002FF07C0A9
:100C7C000E948C090E949B090E94170C06C00E94BE
:100C8C008C090E949B0966277727EA87FB876C876C
:100C9C007D8702FF12C0AD85AA2342F40E948E0903
:100CAC000E94010C0E948709EDE2ED8BED89E0308A
:100CBC0019F01F5F4F5F01C00B7F342F00FD14C074
:100CCC00151710F4351708F00FC007FF08C002FF06
:100CDC0004C00B7F2D89115001C020E301C020E21C
:100CEC000E9465095150ECCF141790F4006102FF7B
:100CFC0006C00E94A50909F0515011504150E0E383
:100D0C00EA930E947A09503009F051504150ECCFCF
:100D1C00312FEC89E030B9F43030A1F003FF06C07C
:100D2C00EE85FF852591EE87FF8705C0AE85BF85D3
:100D3C002D91AE87BF870E946509503009F0515044
:100D4C003150EACF51C00E94B7090E94540C2E2F8B
:100D5C002A3030F003FF02C0295C01C0295A01C0BF
:100D6C00205D04FD21C0213360F4A889B9898A89EA
:100D7C009B89A130E0E0BE07E0E08E07E0E09E0733
:100D8C0009F40BC0431740F4531710F000FF01C0D7
:100D9C0010C020E207FF08C020E3006102FF04C07E
:100DAC000E94A50909F051500E946509503009F0C4
:100DBC00515031500E94B7090E94930C0E94870930
:100DCC00EC89A889B9898A899B89FF2766277727A7
:100DDC000E94540C0E94A009E889F9896A897B89D0
:100DEC000E94F50C09F0AFCF00FF08C0503031F075
:100DFC005150E0E2EA930E947A09F8CF10E00CCE51
:100E0C00AE81BF810E94B10C0E94000DEF966F96CF
:100E1C000895FF92F82E26970E94FB0C0E94C009A1
:100E2C00309719F4EFEFFFEF23C0DE0116960E9406
:100E3C00F40B8D010E94C009EE83FF83E0E0E8878C
:100E4C00E987DE011A960E94F40B0E94B10CFA930A
:100E5C00EA931A930A93E6EEF3E0FA93EA93DE012F
:100E6C001A96BDDD9F01AE81BF81E0E0EC93F901E4
:100E7C000E94020D2A96FF900895BA93AA93E991C5
:100E8C00F991A991B991CD0105900D920020E1F74E
:100E9C00FC010895BA93AA93A991B991EE27FF2763
:100EAC006D91662311F03196FBCF0895BA93AA93F6
:100EBC00AA27BB27E991F9910590002011F0119612
:100ECC00FBCFFD0108950E94D90C7B816A81F981C9
:100EDC00E88177FB770F67FD7160972F9E5781F044
:100EEC0078F0983190F4AA27BB2788270894879527
:100EFC00B795A7959A95D1F7EA23FB23682305C0EC
:100F0C00E8947727EE27FF2766276F77769508F406
:100F1C00606877F9A991B99189919991EA17FB07C2
:100F2C006807790797FB08950E94D90C0E94CA0C98
:100F3C000E9469070E94CF0C19F40E94C50C09C0CD
:100F4C00E6F70E94C50CA0E0B0E080E89FE30E94A9
:100F5C00EA0A24960895BA93AA932497BCD0E0E0A9
:100F6C00EA83EFE3EB831A930A93EB85FC85EF3F5F
:100F7C00AFEFFA0731F405D2AEECB0E00E944307B4
:100F8C008AC0EF3FAFE7FA0731F4FBD1AFECB0E02A
:100F9C000E94430780C0AC85AA2352F4E985FA85E8
:100FAC006B857C850E944B0AF1D1F5D1EDE2EC9377
:100FBC00A885A73010F0E6E0E8871885E12F1150DE
:100FCC00E03021F0EFD15DD1F2D1F8CFF5D10E9414
:100FDC00F10ADCD110E0E0E0F0E060E87FE3E7D17B
:100FEC00EBD10E94D40B68F0DDD138D1E0D11F5F7A
:100FFC00173230F0C6D1A3EDB0E00E9443074BC0CE
:10100C00EFCF103021F4C7D1E0E3EC9320C0E12FF7
:10101C001150E030E1F0C6D134D12CD1DF01CB013D
:10102C000E949A07C4D1C8D10E948F0B0E947E0ADD
:10103C000E2FB1D134D1F0E0B5D10E94170C0E9423
:10104C00B70A0E94410BC1D12FD1A0D1E0CFE885C6
:10105C00E030E9F0A0D1EEE2EC93E885E150E887CE
:10106C00EF5FA9F0B2D1FAD091D1E985FA856B8501
:10107C007C850E947E0A0E2F8ED111D1F0E0A5D175
:10108C000E94170C0E94B70A0FD180D1E6CFAE8117
:10109C00BF81E0E0EC93198108812D9608950E94A0
:1010AC00F509A0ED0C94290A0E94290A0C94040A53
:1010BC00A1E00E940E0AAE2F0C942B010E94380165
:1010CC00AE2F0E94290AE881F98108950E94A70396
:1010DC00E0E0EA930895E0E0E883E9830895E0E036
:1010EC00EA93A0E00E947903E3E9F1E0FA93EA9332
:1010FC00E7E9F0E0FA93EA93EE81FF27662777277A
:10110C000E94D40CE985FF27662777270E94D40C10
:10111C00EC85FF27662777270E94D40C8CE00E9471
:10112C000F07609608950E94A703E3E9F1E0FA9394
:10113C00EA93E1EBF0E0FA93EA93EA85FF2766275E
:10114C0077270E94D40CED85FF27662777270E940E
:10115C00D40CE889FF27662777270E94D40C8CE0F3
:10116C000E940F0760960895A3E9B1E00E94A703BF
:10117C00E89420F80895E12FF0E03397A3E0B0E075
:10118C000E94240C08950E94A6014E2EEFEFE41548
:10119C000895A091A701B091A8018091A901909107
:1011AC00AA01E091A301F091A4016091A5017091B5
:1011BC00A6010E94F80B0895E091A301F091A401FF
:1011CC006091A5017091A601E093A701F093A8018D
:1011DC006093A9017093AA01689420F808950E9465
:1011EC006D03A3E0B0E00C94410AA0E30E94590304
:1011FC0088EC90E00197F1F70895ED91FD9131960F
:10120C00FE93EE930895AC81BD818E819F81E0E0C9
:10121C00F0E060E271E40E94410BEC83FD836E838D
:10122C007F830895EC81FD816E817F81AC85BD85C6
:10123C008E859F850E94D40B0895AC85BD858E85C7
:10124C009F850895EDECFCEC6CEC7DE30E94410B6A
:10125C00EC87FD876E877F873F5F0895E0E0F0E0C5
:10126C0060E271E40E94410B0895EC87FD876E8764
:10127C007F870895A0E0B0E080E09FE30E94F10A30
:10128C000895EDECFCEC6CEC7DE30E94410B0895B1
:10129C00A885B9851196A887B98711970895E02F6D
:1012AC00E05DEC93E02F08950E94DE0C0E94EA0AA8
:1012BC000895E885F9853196E887F98708952A938A
:1012CC00AF81B885E985FA8509950895FE01E65A3E
:1012DC00FF4F0190F081E02D08953497DE01A65A5E
:1012EC00BF4FED93FC930895AF81B885E985FA85DE
:1012FC0009950895DE01A65ABF4F0D90BC91A02D03
:10130C000895EA87FB876C877D870895DFDFE5CF3B
:10131C00EA85FB856C857D850895EE87FF87AE8514
:10132C00BF850E9450071E2F0895E4DF14960E947B
:10133C00B10C0895E88BF98B6A8B7B8B08950B7F2E
:10134C00ED89EA93DE01A95ABF4F0D90BC91A02DF7
:10135C00FE01E75AFF4F0190F081E02D09955030C6
:10136C000895E889F9896A897B89AA85BB858C856A
:10137C009D850895DE011C960E94F40B0E94B10C11
:10138C000895EE81FF81FA93EA930895E987FA872D
:10139C006B877C870895AE81BF811196AE83BF8326
:1013AC0011970895AA81BB818C819D810895EA8350
:1013BC00FB836C837D830895EA81FB816C817D8145
:1013CC00A985BA858B859C850895A985BA858B8559
:1013DC009C850895D898D998D09AD19815C0D19851
:1013EC00D098EE270000C99B0895C89B089504D09F
:1013FC00D19A02D0D09AE1E06DE007C0D19AD09A90
:10140C0003D0D098F9DFD1986BE16A95F1F7089584
:10141C0078E0D098F1DFC89BFECFEEDF8894C999B5
:10142C000894D09AF1DFEE1F7A9599F77A2F7723EB
:10143C0011F4D19801C0D19ADFDFD098E5DFD09AB2
:10144C00DBDFD198D9CF78E0AA0F10F4D19801C086
:10145C00D19ADADFD098D0DFC89BFECFCDDFD09AFF
:10146C007A9591F7D198C8DFD098CEDFE1E0C99991
:10147C00EE27D09AC1CF109639F080ED97E0019706
:10148C00F1F7A8951197C9F708953097604070400F
:10149C0009F070580895552342F4503811F4E0FFC8
:1014AC0004C03196691F791F6BF050E8572711F46F
:1014BC005F93CFC05F3F31F0660F000C5795679577
:1014CC00752F08955F9300200AF0CFC0C8C050E874
:1014DC00192E1522880F991F9527550F879550E8BF
:1014EC00072E0522660F771F7527550F67950895F0
:1014FC00689401C0E8945F93F2DF703818F07F3F76
:10150C0008F4A7C056E1571BAAF4519558300EF4B5
:10151C00593030F0EFEFFFEF6FEF7FE777F91AC03C
:10152C0077275523B9F0EE0FFF1F661F771F5A95CB
:10153C00D1F710C07727583028F0EF2FF62F672FF0
:10154C005850F9CF552331F076956795F795E79577
:10155C005A95D1F700200AF44ED15F910895689402
:10156C0001C0E894309760407040B1F0002426F040
:10157C00772312F400943FD1172E7EE1112032F024
:10158C007A95EE0FFF1F661F111CF9CFEF2FF62F68
:10159C00612D5F938ADF5F9108954F93AF01FD0139
:1015AC00DA01AB01BC01CA01402D012C142E4F9164
:1015BC000895EA0FFB1F681F0895E095F09560955C
:1015CC00EF5FFF4F6F4F08955F9381DF903871F19C
:1015DC0050E8152604C05F937ADF903839F17038E3
:1015EC0021F1572F591B2BF112F4D7DFFACF5831B9
:1015FC0018F0AA27BB278827583028F0AB2FB82F14
:10160C0088275850F9CF552329F08695B795A7957B
:10161C005A95D9F7502D512572F0CBDF38F46795D8
:10162C00F795E795739513F420C0B7DF3EDF5F9114
:10163C000895D8F7FBCFEA1BFB0B680B51F010F4A5
:10164C000094BBDF662392F3EE0FFF1F661F7A95A3
:10165C00CBF7EE27FF27662777275F910895EFEFEB
:10166C00FFEF6FE77FEF5F910895EFEFFFEF6FE70D
:10167C007FE75F9108955F932ADF703851F39038BC
:10168C0041F301240894791F23F41CF300203AF34E
:10169C00ECCF0F921F932F933F934F931127222739
:1016AC009927689FA0018F9F302D410D591F6B9F6B
:1016BC00300D411D591F8E9F27D0BF9F25D06A9F8B
:1016CC0023D0BE9F1DD0AF9F1BD0AE9F110D291FE5
:1016DC00391F491F591FE32FF42F652F522F4F919C
:1016EC003F912F911F910F9066232AF0550FEE1FFB
:1016FC00FF1F661F02C073954BF2CDDE5F910895FC
:10170C00100D211D391F02C0200D311D491F591FFD
:10171C0008955F93DCDE703821F411200AF49FCF1A
:10172C00A4CF903809F495CF01240894970B1BF49F
:10173C00D4F30020F3CF792F1F932F933F934F9324
:10174C0011241127222733274427552790E2AE175F
:10175C00BF078607410730F0AE1BBF0B860B410B52
:10176C00089401C08894551F221F331F111CAA1FF7
:10177C00BB1F881F441F9A9551F7F901612D4F919A
:10178C003F912F911F91662332F0550FEE1FFF1FD3
:10179C00661F7A9543F27FDE5F91089599239AF044
:1017AC00772342F0971748F029F4AE17BF07860746
:1017BC0020F031F0989488940895989408940895A2
:1017CC001894889408957723C2F7971798F3A9F77C
:1017DC00EA17FB07680788F399F3ECCF0024AF0DE9
:1017EC00B01D0895EA1BFB0B680B790B0895F1955E
:1017FC00E195F0400895F09560957095E195FF4F57
:10180C006F4F7F4F0895EE230E2EEA2F19F0E695B9
:10181C000A94E9F70895FE2FFF0FFF0B6F2F7F2F10
:10182C0008956F2F660F660B762F0895FA9FF02D93
:10183C00EB9FF00DEA9FE02DF10D08957ED0F6DFC1
:10184C000EF4D5DF0895002498E0AA0F001C0E1AA0
:10185C0010F40E0E01C0A1609A95B9F7EA2FA02DD5
:10186C0008955FD0F0DF0EF4E19508950024112463
:10187C0090E1AA0FBB1F001C111C0E1A1F0A18F4B2
:10188C000E0E1F1E01C0A1609A9599F7FD01D001A3
:10189C00089553D0EBDF0EF4AADF08953F934F93D6
:1018AC005F93002411244427552730E2AA0FBB1F55
:1018BC00881F991F001C111C441F551F0E1A1F0A4C
:1018CC00460B570B28F40E0E1F1E461F571F01C048
:1018DC00A1603A9559F7FD01BC01D001CA015F9195
:1018EC004F913F910895E894A7FF02C0A195689489
:1018FC00E7FDE195A8DFEA2F0EF4E1950895E89451
:10190C00B7FF04C0A095B09511966894F7FD6FDFF2
:10191C00ADDFFD010EF46BDF0895C0DFFD01BC01EE
:10192C000895E894E7FF02C0E1956894A7FF04C00E
:10193C00A19500F8039400FA0895E894F7FF02C00B
:10194C0056DF6894B7FF06C0A095B095119600F8C5
:10195C00039400FA0895ED91FC9111970895ED917F
:10196C00FD916D917C9113970895ED91FD916D9181
:10197C007D9108957E936E93FE93EE930895E88186
:10198C00F9816A817B810895A881B9818A819B81C3
:10199C000895E883F9836A837B8308957A936A9325
:1019AC00FA93EA9308959A938A93BA93AA93089513
:1019BC00182E862F612D192E972F712D1B2EBF2FB0
:1019CC00F12D1A2EAE2FE12D08959927EF93FF9349
:1019DC0061916D930197E1F7FF91EF910895309725
:1019EC006040704008955A934A933A932A931A93FD
:1019FC000A9308955D814C813B812A81198108816C
:101A0C000895AC0FBD1F05900D928A95E1F70895CE
:00000001FF
