:040000000C948000DC
:100004000C9400000C9400000C9400000C9400006C
:100014000C9400000C9400000C9400000C9400005C
:100024000C9400000C9400000C9400000C9400004C
:100034000C9400000C9400000C9400000C9400003C
:100044000C9400000C9400000C9400000C9400002C
:100054001027E80364000A000100001000011000EA
:100064000100010000000A000B0C0102030D04054D
:10007400060E0708090F4C4344205465737421206D
:1000840048656C6C6F20005072657373204F4E2E60
:100094002E2000456E74657220796F757220776525
:1000A400696768743A002569200054686973206997
:1000B400732070616765203300686168612E2E20AB
:1000C400000080C001000200660002000400680015
:1000D4001000B7016A00110060017A000C00710180
:1000E4008B0013007D0197000F009001AE00080003
:1000F4009F01BD000200C701C6000000F894EE276E
:10010400ECBBF1E0FBBFEBBFE5BF8DE0A2E0BB279A
:10011400ED938A95E9F780E094E0A0E6ED930197EA
:10012400E9F7E8ECF0E085919591009761F0A591ED
:10013400B59105901590BF01F00105900D920197BE
:10014400E1F7FB01F0CFEFE5EDBFE4E0EEBFC0E681
:10015400D1E00C94DC001A930A93E2B3EF60E2BBA3
:1001640000E0043018F5E0E0E1BB11B2E02FA0E8B4
:100174000E940704E129E1BB10E01430A8F410B296
:10018400E12FA8E00E940704E12161F4E4E0E19F8B
:10019400F001DF01E02FF0E0EA0FFB1FE954FE4F0E
:1001A400E08105C01F5FE9CF0F5FDBCFEFEF09915F
:1001B400199108951FEF20E030E0A0E1DDD0552033
:1001C40011F420FC01C009C00E94AD03A0E6B1E017
:1001D4000E94B403A1E7B1E02EC0E1E0E51511F4FB
:1001E40020FC01C01AC00E94AD03ADE7B1E00E943B
:1001F400B403E7EAF1E0FA93EA93EAEAF0E0FA9367
:10020400EA93F901662777270E94170484E00E9485
:1002140060032896A7EAB1E00EC0E2E0E51511F408
:1002240020FC01C00BC00E94AD03A0E9B1E00E9414
:10023400B403AFE9B1E08FD0E89420F8E52DF0E005
:10024400309789F488DF4E2EEFEFE41511F0141582
:1002540009F408C0EAE0E41511F4E1E05E2E6894C4
:1002640020F8142D28C0E130A0E0FA0721F573DF4F
:100274004E2EEFEFE41511F0141509F41CC0E0E064
:100284004E1618F0E9E0E41508F40DC0AAE0A29FA8
:10029400F001A39FF00DDF01E42DF0E0EA0FFB1F56
:1002A4009F01689420F8EFE0E41521F4E2E05E2E6B
:1002B400689420F8142D83CFFFCFAA93E5B3EF7091
:1002C400AE2FE881E07FEA2BE5BB8DE08A95F1F75C
:1002D400AA9A8DE08A95F1F7AA988DE08A95F1F7AC
:1002E40077C0AA93A881E9DFE881E295E883A88131
:1002F400E4DF85E88A95F1F76BC0AA93E881F0E022
:10030400E953FE4FE081A981AE0FEBDF798068806D
:1003140022960895A2E00E94BB03ACE0E2DFA1E0D4
:100324000E94BB03E0E06E2E7E2E0895AA93A8815E
:10033400AA3011F0791448F0E0E0EA936394A62D12
:10034400DCDFA881AA3009F443C07394A89AA88179
:10035400C8DFA8983DC0BA93AA931A93A981BA8119
:10036400ED91A983BA831E2FE03019F0A12FDEDFAF
:10037400F5CF188123960895AA93E4B3E06FE4BB04
:10038400A29AA09AA19AAA98A898A9989880E88174
:10039400E058E093C901E881E054E093CA01A4E184
:1003A400B0E00E94F5030E94C1030E94C1030E94B1
:1003B400C103A0E282DF88EC90E00197F1F7A8E2A4
:1003C40090DFA4E08EDFA5E88CDFA6E08ADFA2DF61
:1003D40021960895BA93AA931A930A93AA81BB818A
:1003E40012960E940F04309759F1AA81BB8114968A
:1003F4000E940F048F01309761F00230E0E01E0785
:1004040098F0F80131978F01AA81BB811496ED937E
:10041400FC93AA81BB811296ED91FD913196FE93D6
:10042400EE933197AC81A083AA81BB810E940F0413
:10043400FF232AF0ED91FD913196FE93EE9306C0D1
:10044400AA81BB81EFEFFFEFED93FC931981088143
:1004540025960895BA93AA9326970E941C0410E047
:10046400AC85BD85E0E0F0E0ED93FC93EA89FB897F
:100474003196EA8BFB8B3197E4912E2FE03009F40F
:1004840015C1E12FE03039F4253211F411E002C036
:100494000E94C9030AC1E130A9F4253219F40E946B
:1004A400C90302C112E040E000E02D3211F401E082
:1004B400FCC02B3211F44BE2F8C0203211F440E2BC
:1004C400F4C002C0E23039F450E013E0203311F4F8
:1004D4000068EBC003C0E33009F0E7C0203310F03C
:1004E4002A3308F007C0AAE05A9F502DE22FE053A8
:1004F4005E0FDBC0E22FE33649F40E94D003E889A3
:10050400F989A481AA930E94D603CEC0E33741F4AB
:100514000E94D0030E94DC030E9494031E2F0AC091
:10052400E03761F40E94D0030E94DC030E94A00320
:100534001E2F086002600F7730E034C0E43611F0FB
:10054400E93611F4046002C0E53731F4E4E5F0E083
:10055400EE83FF8315E00CC0E83511F4086003C096
:10056400E83709F0A1C0EEE5F0E0EE83FF8314E084
:1005740002FF14C00E94D0030E94E603AB85AA23A5
:100584003AF4EA85FB850E940304EA87FB874DE27F
:10059400403011F01F5F01C00B7F04C00E94D003E4
:1005A4000E94E60300FD11C0151778F407FF08C088
:1005B40002FF04C00B7F242F115001C020E301C0AF
:1005C40020E20E94C9035150EFCF312F01FF17C021
:1005D4003030A1F003FF06C0EE81FF812591EE8348
:1005E400FF8305C0AE81BF812D91AE83BF830E947E
:1005F400C903503009F051503150EACF4BC020E3C9
:10060400EE81FF810E941304E887F987EE81FF8160
:100614003296EE83FF83E885F985AA85BB85AE17FC
:10062400BF0750F02F5FA885B985EA85FB85EA1BD3
:10063400FB0BEA87FB87EFCF2A3328F003FF02C0C6
:10064400295F01C0295D04FD1AC0213320F4A88567
:10065400B985119709F409C0531710F000FF01C0C0
:1006640013C020E207FF0BC020E3006102FF07C0B4
:100674000B7F4A930E94D603503009F051500E94D8
:10068400C903503009F051503150A885B9851297EB
:1006940008F0B5CF00FF08C0503031F05150E0E20F
:1006A400EA930E94D603F8CF10E0E0CEAC85BD8576
:1006B4000E940F040E94230464960895FF92F82E6A
:1006C40026970E941E040E94EE03309719F4EFEF60
:1006D400FFEF23C0DE0116960E94FF038D010E94E6
:1006E400EE03EE83FF83E0E0E887E987DE011A96F4
:1006F4000E94FF030E940F04FA93EA931A930A9349
:10070400ECEEF1E0FA93EA93DE011A96A3DE9F0180
:10071400AE81BF81E0E0EC93F9010E9425042A96A2
:10072400FF900895BA93AA93A991B991EE27FF2750
:100734006D91662311F03196FBCF0895BA93AA9375
:10074400AA27BB27E991F9910590002011F0119691
:10075400FBCFFD0108950E948C01E0E0EA93A0E044
:100764000C947F010E94AD01E0E0EA93A1E00C94B7
:100774007F010E947301A3E0B0E00C94F503A0E3B1
:100784000E945F0188EC90E00197F1F708952A93A5
:10079400AD85BE85EF85F88909950895E889F989BD
:1007A4003497E88BF98B0895AD85BE85EF85F8897C
:1007B40009950895A889B98914960E940F04EE83B7
:1007C400FF83AE81BF810895A889B98914960E94D8
:1007D4000F04EA87FB870895DE011C960E94FF033D
:1007E4000E940F040895109639F080ED97E0019768
:1007F400F1F7A8951197C9F708950024AF0DB01D1E
:100804000895F195E195F0400895EE230E2EEA2F18
:1008140019F0E6950A94E9F70895ED91FC91119782
:1008240008950590F491E02D08957A936A93FA93CC
:10083400EA9308955A934A933A932A931A930A93FC
:1008440008955D814C813B812A8119810881089535
:00000001FF
