:020000000C945E
:1000020047000C948A000C9400000C9400000C949D
:1000120000000C9400000C9400000C9400000C945E
:10002200D9000C9400000C9400000C9400000C9475
:1000320000000C9400000C9400000C9400000C943E
:1000420000000C9400000C9400000C9400000C942E
:100052000000000064633A20256600667265713A0A
:10006200202566002D4E414E000080C001002D4E1D
:10007200414E00494E4600000100020054000200B9
:10008200A0016C000100A4016E000000F894EE27AC
:10009200ECBBF1E0FBBFEBBFE5BF8DE0A2E0BB270D
:1000A200ED938A95E9F780E094E0A0E6ED9301975D
:1000B200E9F7EAE7F0E085919591009761F0A59163
:1000C200B59105901590BF01F00105900D92019731
:1000D200E1F7FB01F0CFEFE5EDBFE4E0EEBFC0E6F4
:1000E200D1E00C94F2000E94850AA885B9858A8520
:1000F2009B850E94DA060E94CF080E94710A0E9424
:100102002609A885B9858A859B850E94D6082C96E2
:1001120008951A926A937A938A939A93AA93BA93B6
:10012200EA93FA93EFB7EA93E0E020FCE1E0A8E774
:10013200B1E0F0E00E94EF09EA0FFB1FFF93EF939B
:10014200E0E020FEE1E0A0E8B1E0F0E00E94EF098B
:10015200AE0FBF1F0E94570A0E94DF060E948A0A42
:100162000E94E209AF91BF910E94620AE0E020FC86
:10017200E1E0A0E8B1E0F0E00E94EF09EA0FFB1F26
:100182000E94DF060E947B0AE894829B689420F812
:10019200ACE8B1E00E94E806E991EFBFF991E9917C
:1001A200B991A9919991899179916991199018952B
:1001B2006A937A93AA93BA93EA93FA93EFB7EA937C
:1001C200E0EEEDBDE0ECECBDA0E6B1E00E94E80699
:1001D200E991EFBFF991E991B991A9917991699169
:1001E2001895E0E0EFBDE1E0EEBDEFEFEDBDE8EF29
:1001F200ECBDE0E0E7BDE6BDEBBDEABDE9BDE8BDB3
:10020200E4E0E9BFEBB7E064EBBFE1E0E5BFE0E0CB
:10021200E4BFE0E4EABFA0E10E949D057894A091CA
:100222006401B091650180916601909167010E941D
:10023200F1060E94E209E83EA3E0FA07A0E06A079D
:10024200A0E07A0708F463C0E0917801F0917901A7
:1002520060917A0170917B010E949A087F936F935B
:10026200FF93EF93E0917C01F0917D0160917E011B
:1002720070917F01A0917801B091790180917A010A
:1002820090917B010E94DD090E949A08AF91BF9173
:100292008F919F910E947409A0E0B0E088EC92E4F3
:1002A2000E942609E0939801F093990160939A01C4
:1002B20070939B01E0918C01F0918D0160918E0110
:1002C20070918F010E949A08DF01CB01E0E0F0E01B
:1002D20060E070E40E947409E0939001F093910150
:1002E2006093920170939301E0E0E0938C01E093BC
:1002F2008D01E0938E01E0938F010E94F106E0935D
:100302006401F09365016093660170936701A091A7
:100312006001B09161018091620190916301E4E614
:10032200F0E060E070E00E94430A0E94970A09F040
:1003320042C00E94FA06E0919001F0919101609111
:100342009201709193010E940507E0939401F0934A
:10035200950160939601709397010E940D07E091B9
:100362009801F091990160919A0170919B010E940C
:100372000507E0939C01F0939D0160939E017093A9
:100382009F01E0E0EA93A0E00E941807E6E5F0E0B2
:10039200FA93EA930E940D070E941F07E0E0EA9396
:1003A200A1E00E941807EDE5F0E0FA93EA930E94BB
:1003B200FA060E941F07A8E8B1E00E94E8062FCFC4
:1003C200FFCFBA93AA931A930A93AA81BB8112967A
:1003D2000E94530A309729F1AA81BB8114960E9488
:1003E200530A8F01309761F00230E0E01E0780F07F
:1003F200F80131978F01AA81BB811496ED93FC938A
:10040200AA81BB8112960E9427073197AC81A083F3
:10041200AA81BB810E94530AFF2312F00E94270780
:1004220006C0AA81BB81EFEFFFEFED93FC93198128
:100432000881259608950E942D07E0E8EA83EFE3FC
:10044200EB830E949D0AEE85FF85EF3FAFEFFA072F
:1004520049F4E885F985FA93EA93A6E6B0E00E94AA
:10046200CB05B9C0EF3FAFE7FA0749F4E885F98554
:10047200FA93EA93A7E6B0E00E94CB05ACC0AB8545
:10048200A73010F0E6E0EB871B85E12F1150E0303A
:1004920019F00E943407F9CFEC85FD856E857F85C2
:1004A2000E94970A21F430E00E9434072DC03B8558
:1004B2000E94430709F008F40BC00E9434070E940F
:1004C200430728F00E944B070E945007F8CF0DC047
:1004D2000E94430740F40E944B070E945C070E945F
:1004E20063073150F5CF0E943407EC85FD856E8598
:1004F2007F850E9468070E9463070E94430720F0DD
:100502000E944B070E94500710E0EB85E117B8F1FB
:10051200AC81BD818E819F810E946F070E94680716
:10052200DF01CB010E942206EC83FD836E837F8371
:100532000E94DA060E944B070E9474090E94630817
:100542000E2F0E9476070E947D07FF2766277727D6
:100552000E949C08AC81BD818E819F810E942609E8
:100562000E944B070E9482070E946307E12F1F5FD0
:10057200E03059F60E947607EEE2EC93C6CF0E9475
:1005820087073197AA85A08330302CF43195A8854E
:10059200B985EDE203C0A885B985EBE2EC930E9430
:1005A20087070E9487073197BF01A32FEAE00E94C5
:1005B2000D0AE05DDB01EC930E9487073197BF01D2
:1005C200A32FEAE00E94370AE05DDB01EC93A885E5
:1005D200B985E0E0EC930E94A40A60960895BA936C
:1005E200AA93EF9761970E949B0A10E0FE01E85AD6
:1005F200FF4F0190F081E02DE887F987FE01EA5A6A
:10060200FF4F0190F081E02DEE83FF83AE81BF8129
:10061200E0E0F0E0ED93FC93DE01A45ABF4F0E94AC
:1006220027073197E4912E2FE03009F4E9C1E12F39
:10063200E03039F4253211F411E002C00E948D0736
:10064200DEC1E130C1F4253219F40E948D07D6C112
:1006520012E0E0E0ED8B00E02D3211F401E0CFC1B9
:100662002B3219F4EBE2ED8BCAC1203219F4E0E22D
:10067200ED8BC5C102C0E23039F450E013E0203303
:1006820011F40068BCC102C0E33091F4203310F0D1
:100692002A3308F007C0AAE05A9F502DE22FE053F8
:1006A2005E0FADC140E02E3211F414E0A8C10FC0BC
:1006B200E43099F4203310F02A3308F008C00062C5
:1006C200AAE04A9F402DE22FE0534E0F98C12C36EC
:1006D20019F4026015E093C103C0E53009F08FC13F
:1006E200E22FE33659F40E9494070E949B070E946E
:1006F2009407A481AA930E94A20780C1E53411F055
:10070200E53609F403C0E63609F048C0FE017696E4
:10071200EE87FF870E94A8070E94570A0E94AF0730
:100722000E94B407AD85AA2332F0AD89AB3259F0ED
:10073200A03281F017C00E94B6070E9430080E94C2
:10074200AF07EDE2ED8B07FF05C0ED89EA930E944A
:10075200A20708C0EE85FF853196EE87FF873197A5
:10076200AD89A08305FF46E0263651F40E94B60704
:100772000E94800A4A93AB89BC890E94390609C04B
:100782000E94B6070E94800A4A932A93AC89BD89C7
:1007920052DEFE0176960E94BB071EC0E33739F493
:1007A2000E94B4070E94C3070E94BB070EC0E03735
:1007B200C1F40E94B4070E94C307EE87FF87AE858B
:1007C200BF850E94E4051E2F08600F77403011F0AC
:1007D200411708F001C0142F40E0E0E0EC8B30E05C
:1007E2006DC0E43611F0E93611F4046002C0E53759
:1007F200A1F4EAE0EC8B01FF08C0E0E0FAEC6AE960
:100802007BE30E94C8071AE022C0E0E1F7E260E061
:1008120070E00E94C80715E01AC0E83511F40860BC
:1008220003C0E83709F0EAC0E0E1EC8B01FF08C041
:10083200E0E0F0E060E070E10E94C80718E007C065
:10084200E0E0F0E160E070E00E94C80714E04030B0
:1008520011F00F7701C041E001FF08C00E94B40708
:100862000E94A80714960E94570A0FC002FF07C0F1
:100872000E94B4070E94C3070E94FA0906C00E94A0
:10088200B4070E94C30766277727EA87FB876C872E
:100892007D8702FF12C0AD85AA2342F40E94B607EB
:1008A2000E94E7090E94AF07EDE2ED8BED89E0308F
:1008B20019F01F5F4F5F01C00B7F342F00FD14C082
:1008C200151710F4351708F00FC007FF08C002FF14
:1008D20004C00B7F2D89115001C020E301C020E22A
:1008E2000E948D075150ECCF141790F4006102FF63
:1008F20006C00E94CD0709F0515011504150E0E36B
:10090200EA930E94A207503009F051504150ECCFB7
:10091200312FEC89E030B9F43030A1F003FF06C08A
:10092200EE85FF852591EE87FF8705C0AE85BF85E1
:100932002D91AE87BF870E948D07503009F051502C
:100942003150EACF51C00E94DF070E94120A2E2FB7
:100952002A3030F003FF02C0295C01C0295A01C0CD
:10096200205D04FD21C0213360F4A889B9898A89F8
:100972009B89A130E0E0BE07E0E08E07E0E09E0741
:1009820009F40BC0431740F4531710F000FF01C0E5
:1009920010C020E207FF08C020E3006102FF04C08C
:1009A2000E94CD0709F051500E948D07503009F086
:1009B200515031500E94DF070E94430A0E94AF0744
:1009C200EC89A889B9898A899B89FF2766277727B5
:1009D2000E94120A0E94C807E889F9896A897B89FC
:1009E2000E94970A09F0AFCF00FF08C0503031F0E3
:1009F2005150E0E2EA930E94A207F8CF10E00CCE39
:100A0200AE81BF810E94530A0E94A20AEF966F969E
:100A12000895FF92F82E26970E949D0A0E94E807E9
:100A2200309719F4EFEFFFEF23C0DE0116960E9414
:100A3200D9098D010E94E807EE83FF83E0E0E88791
:100A4200E987DE011A960E94D9090E94530AFA9395
:100A5200EA931A930A93E2EEF1E0FA93EA93DE0143
:100A62001A96BDDD9F01AE81BF81E0E0EC93F901F2
:100A72000E94A40A2A96FF900895AA93E5B3EF7004
:100A8200AE2FE881E07FEA2BE5BB8DE08A95F1F796
:100A9200AA9A8DE08A95F1F7AA988DE08A95F1F7E6
:100AA20077C0AA93A881E9DFE881E295E883A8816B
:100AB200E4DF85E88A95F1F76BC0AA93E881F0E05C
:100AC200E056FE4FE081A981AE0FEBDF59804880EE
:100AD20022960895A2E00E94EF07ACE0E2DFA1E0D7
:100AE2000E94EF07E0E04E2E5E2E0895AA93A881A1
:100AF200AA3011F0571448F0E0E0EA934394A42D91
:100B0200DCDFA881AA3009F443C05394A89AA881D3
:100B1200C8DFA8983DC0BA93AA931A93A981BA8153
:100B2200ED91A983BA831E2FE03019F0A12FDEDFE9
:100B3200F5CF188123960895AA93E4B3E06FE4BB3E
:100B4200A29AA09AA19AAA98A898A9987880E881CE
:100B5200E058E093A201E881E054E093A301A4E10C
:100B6200B0E00E9426080E94F5070E94F5070E9445
:100B7200F507A0E282DF88EC90E00197F1F7A8E2A6
:100B820090DFA4E08EDFA5E88CDFA6E08ADFA2DF9B
:100B920021960895BA93AA93E991F991A991B991ED
:100BA200CD0105900D920020E1F7FC010895BA9362
:100BB200AA93A991B991EE27FF276D91662311F0AF
:100BC2003196FBCF0895BA93AA93AA27BB27E9913E
:100BD200F9910590002011F01196FBCFFD010895C7
:100BE2000E94850A7B816A81F981E88177FB770F10
:100BF20067FD7160972F9E5781F078F0983190F4DD
:100C0200AA27BB27882708948795B795A7959A9511
:100C1200D1F7EA23FB23682305C0E8947727EE2760
:100C2200FF2766276F77769508F4606877F9A991B0
:100C3200B99189919991EA17FB076807790797FBA0
:100C420008950E94850A0E94710A0E94F1050E947D
:100C5200760A19F40E946C0A09C0E6F70E946C0A2F
:100C6200A0E0B0E080E89FE30E94CF0824960895B8
:100C7200F3D0E0E0EA83EFE3EB831A930A93EB8588
:100C8200FC85EF3FAFEFFA0731F4B6D1A0E7B0E051
:100C92000E94CB058AC0EF3FAFE7FA0731F4ACD12F
:100CA200A1E7B0E00E94CB0580C0AC85AA2352F434
:100CB200E985FA856B857C850E943008A2D1A6D190
:100CC200EDE2EC93A885A73010F0E6E0E8871885FE
:100CD200E12F1150E03021F0A0D100D1A3D1F8CF03
:100CE200A6D10E94D6088DD110E0E0E0F0E060E8E5
:100CF2007FE398D19CD10E94B90968F08ED1DBD0F4
:100D020091D11F5F173230F077D1A5E7B0E00E9492
:100D1200CB054BC0EFCF103021F478D1E0E3EC9358
:100D220020C0E12F1150E030E1F077D1D7D0CFD001
:100D3200DF01CB010E94220675D179D10E9474098C
:100D42000E9463080E2F62D1D7D0F0E066D10E94D4
:100D5200FA090E949C080E94260972D1D2D051D170
:100D6200E0CFE885E030E9F051D1EEE2EC93E8859E
:100D7200E150E887EF5FA9F063D19DD042D1E985C8
:100D8200FA856B857C850E9463080E2F3FD1B4D013
:100D9200F0E056D10E94FA090E949C08B2D031D1EB
:100DA200E6CFAE81BF81E0E0EC93198108812D96F8
:100DB2000895EC81FD816E817F810895A091880163
:100DC200B091890180918A0190918B0108950E94CE
:100DD2005D0AEF5FFF4F6F4F7F4F0E94670A0895D2
:100DE200E0916001F0916101609162017091630193
:100DF2000895E0919401F0919501609196017091AE
:100E020097010E94800A08950E94800AAAE9B9E91E
:100E120089E19FE30C947400E0919C01F0919D01A3
:100E220060919E0170919F010E94800A08950E9424
:100E32005E05E8E6F1E0FA93EA93089584E00E9401
:100E42000A052896A8E6B1E00C948C05ED91FD9177
:100E52003196FE93EE930895BA93AA932497E0E015
:100E6200E883E9830895AC81BD818E819F81E0E0B2
:100E7200F0E060E271E40E942609EC83FD836E8358
:100E82007F83089596DFAC85BD858E859F850E9400
:100E9200B9090895AC85BD858E859F850895EDECD1
:100EA200FCEC6CEC7DE30E942609EC87FD876E87E3
:100EB2007F873F5F0895E0E0F0E060E271E40E9426
:100EC20026090895EC87FD876E877F870895A0E045
:100ED200B0E080E09FE30E94D6080895EDECFCECC0
:100EE2006CEC7DE30E9426090895A885B9851196C8
:100EF200A887B98711970895E02FE05DEC93E02F62
:100F020008950E948A0A0E94CF080895E885F9850B
:100F12003196E887F98708952A93AF81B885E985E4
:100F2200FA8509950895FE01E65AFF4F0190F08176
:100F3200E02D08953497DE01A65ABF4FED93FC933E
:100F42000895AF81B885E985FA8509950895DE018E
:100F5200A65ABF4F0D90BC91A02D0895EA87FB873A
:100F62006C877D870895DFDFE5CFEA85FB856C8599
:100F72007D850895EE87FF87AE85BF850E94D805DF
:100F82001E2F0895E4DF14960E94530A0895E88BF9
:100F9200F98B6A8B7B8B08950B7FED89EA93DE01D7
:100FA200A95ABF4F0D90BC91A02DFE01E75AFF4FE9
:100FB2000190F081E02D099550300895E889F98972
:100FC2006A897B89AA85BB858C859D850895DE010A
:100FD2001C960E94D9090E94530A08950E94520544
:100FE200A3E0B0E00C942608A0E30E943E0588EC42
:100FF20090E00197F1F70895EE81FF81FA93EA9369
:101002000895E987FA876B877C870895AE81BF814F
:101012001196AE83BF8311970895AA81BB818C81FB
:101022009D810895EA83FB836C837D830895EA8121
:10103200FB816C817D81A985BA858B859C8508950C
:10104200A985BA858B859C850895109639F080ED27
:1010520097E00197F1F7A8951197C9F7089530978E
:101062006040704009F070580895552342F450389A
:1010720011F4E0FF04C03196691F791F6BF050E84C
:10108200572711F45F93CFC05F3F31F0660F000C1A
:1010920057956795752F08955F9300200AF0CFC08A
:1010A200C8C050E8192E1522880F991F9527550F91
:1010B200879550E8072E0522660F771F7527550F73
:1010C20067950895689401C0E8945F93F2DF7038E1
:1010D20018F07F3F08F4A7C056E1571BAAF45195B8
:1010E20058300EF4593030F0EFEFFFEF6FEF7FE73B
:1010F20077F91AC077275523B9F0EE0FFF1F661F45
:10110200771F5A95D1F710C07727583028F0EF2F64
:10111200F62F672F5850F9CF552331F07695679502
:10112200F795E7955A95D1F700200AF44FD15F91D0
:101132000895689401C0E894309760407040B1F01F
:10114200002426F0772312F4009440D1172E7EE17A
:10115200112032F07A95EE0FFF1F661F111CF9CF96
:10116200EF2FF62F612D5F938ADF5F9108954F93E2
:10117200AF01FD01DA01AB01BC01CA01402D012C16
:10118200142E4F910895EA0FFB1F681F0895E095F2
:10119200F0956095EF5FFF4F6F4F08955F9381DF8A
:1011A200903871F150E8152604C05F937ADF9038C9
:1011B20039F1703821F1572F591B2BF112F4D7DF77
:1011C200FACF583118F0AA27BB278827583028F0C1
:1011D200AB2FB82F88275850F9CF552329F0869581
:1011E200B795A7955A95D9F7502D512572F0CBDFB7
:1011F20038F46795F795E795739513F420C0B7DF38
:101202003EDF5F910895D8F7FBCFEA1BFB0B680B1B
:1012120051F010F40094BBDF662392F3EE0FFF1F30
:10122200661F7A95CBF7EE27FF27662777275F9110
:101232000895EFEFFFEF6FE77FEF5F910895EFEF14
:10124200FFEF6FE77FE75F9108955F932ADF7038C2
:1012520051F3903841F301240894791F23F41CF3CD
:1012620000203AF3ECCF0F921F932F933F934F93AB
:10127200112722279927689FA0018F9F302D410DAA
:10128200591F6B9F300D411D591F8E9F27D0BF9F45
:1012920025D06A9F23D0BE9F1DD0AF9F1BD0AE9F8B
:1012A200110D291F391F491F591FE32FF42F652FD5
:1012B200522F4F913F912F911F910F9066232AF049
:1012C200550FEE1FFF1F661F02C073954BF2CDDE56
:1012D2005F910895100D211D391F02C0200D311D8F
:1012E200491F591F08955F93DCDE703821F41120E5
:1012F2000AF49FCFA4CF903809F495CF0124089423
:10130200970B1BF4D4F30020F3CF792F1F932F9365
:101312003F934F9311241127222733274427552720
:1013220090E2AE17BF078607410730F0AE1BBF0B36
:10133200860B410B089401C08894551F221F331F4E
:10134200111CAA1FBB1F881F441F9A9551F7F90150
:10135200612D4F913F912F911F91662332F0550FCE
:10136200EE1FFF1F661F7A9543F27FDE5F9108959D
:1013720099239AF0772342F0971748F029F4AE1791
:10138200BF07860720F031F09894889408959894C6
:10139200089408951894889408957723C2F79717AC
:1013A20098F3A9F7EA17FB07680788F399F3ECCFDC
:1013B2000024AF0DB01D0895EA0FFB1F681F791FAF
:1013C2000895EA1BFB0B680B790B0895F095609565
:1013D2007095E195FF4F6F4F7F4F0895EE0FFF1FFE
:1013E200EE0FFF1F0895FE2FFF0FFF0B6F2F7F2FB2
:1013F20008956F2F660F660B762F0895002498E0EC
:10140200AA0F001C0E1A10F40E0E01C0A1609A95CC
:10141200B9F7EA2FA02D089539D0F0DF0EF4E19547
:1014220008953F934F935F93002411244427552737
:1014320030E2AA0FBB1F881F991F001C111C441FFA
:10144200551F0E1A1F0A460B570B28F40E0E1F1EAD
:10145200461F571F01C0A1603A9559F7FD01BC0113
:10146200D001CA015F914F913F910895E894A7FF7F
:1014720002C0A1956894E7FDE195C0DFEA2F0EF462
:10148200E1950895CEDFFD01BC010895E894E7FFE0
:1014920002C0E1956894A7FF04C0A19500F80394E7
:1014A20000FA0895ED91FC9111970895ED91FD9147
:1014B2006D917C9113970895ED91FD916D917D91C0
:1014C2000895ED93FD936D937C9308957E936E93AF
:1014D200FE93EE930895E881F9816A817B810895F4
:1014E200A881B9818A819B810895E883F9836A83FF
:1014F2007B830895A083B1838283938308957A9333
:101502006A93FA93EA9308959A938A93BA93AA9361
:101512000895182E862F612D192E972F712D1B2EAF
:10152200BF2FF12D1A2EAE2FE12D08953097604076
:10153200704008955A934A933A932A931A930A93BE
:1015420008955D814C813B812A811981088108952A
:00000001FF
